:100000000C9462000C948A000C948A000C948A0070
:100010000C948A000C948A000C948A000C948A0038
:100020000C948A000C948A000C948A000C948A0028
:100030000C948A000C948A000C948A000C948A0018
:100040000C943B040C948A000C9409040C94E30374
:100050000C948A000C948A000C948A000C948A00F8
:100060000C948A000C948A000000000024002700F1
:100070002A0000000000250028002B0000000000DE
:1000800023002600290004040404040404040202DA
:100090000202020203030303030301020408102007
:1000A0004080010204081020010204081020000012
:1000B0000008000201000003040700000000000027
:1000C0000000850411241FBECFEFD8E0DEBFCDBFF6
:1000D00011E0A0E0B1E0ECE8FBE002C005900D9279
:1000E000A037B107D9F722E0A0E7B1E001C01D9227
:1000F000AE32B207E1F710E0C2E6D0E004C02197CB
:10010000FE010E94BE05C136D107C9F70E94CF0487
:100110000C94C4050C940000AF92BF92CF92DF9272
:10012000EF92FF920F931F93CF93DF936C017B01AC
:100130008B01040F151FEB015E01AE18BF08C0173D
:10014000D10759F06991D601ED91FC910190F081B0
:10015000E02DC6010995892B79F7C501DF91CF9173
:100160001F910F91FF90EF90DF90CF90BF90AF90D5
:100170000895FC01538D448D252F30E0842F90E0AD
:10018000821B930B541710F0CF9608950197089592
:10019000FC01918D828D981761F0A28DAE0FBF2F5B
:1001A000B11D5D968C91928D9F5F9F73928F90E0B1
:1001B00008958FEF9FEF0895FC01918D828D981720
:1001C00031F0828DE80FF11D858D90E008958FEF5D
:1001D0009FEF0895FC01918D228D892F90E0805C26
:1001E0009F4F821B91098F739927089589E791E0AA
:1001F0000E94EA0021E0892B09F420E0822F089573
:1002000080E090E0892B29F00E94F60081110C9487
:1002100000000895FC01A48DA80FB92FB11DA35AA9
:10022000BF4F2C91848D90E001968F739927848F16
:10023000A689B7892C93A089B1898C918370806439
:100240008C93938D848D981306C00288F389E02DDA
:1002500080818F7D80830895EF92FF920F931F938B
:10026000CF93DF93EC0181E0888F9B8D8C8D981369
:100270001AC0E889F989808185FF15C09FB7F89475
:10028000EE89FF896083E889F989808183708064C1
:1002900080839FBF81E090E0DF91CF911F910F910C
:1002A000FF90EF900895F62E0B8D10E00F5F1F4F1B
:1002B0000F731127E02E8C8D8E110CC00FB607FC2A
:1002C000FACFE889F989808185FFF5CFCE010E94B8
:1002D0000A01F1CFEB8DEC0FFD2FF11DE35AFF4F1B
:1002E000F0829FB7F8940B8FEA89FB898081806246
:1002F000CFCFCF93DF93EC01888D8823B9F0AA8903
:10030000BB89E889F9898C9185FD03C0808186FDD0
:100310000DC00FB607FCF7CF8C9185FFF2CF80811F
:1003200085FFEDCFCE010E940A01E9CFDF91CF9189
:100330000895833081F028F4813099F08230A9F05B
:1003400008958730A9F08830C9F08430B1F48091E5
:1003500080008F7D03C0809180008F778093800024
:10036000089584B58F7784BD089584B58F7DFBCFC4
:100370008091B0008F778093B00008958091B00095
:100380008F7DF9CF1F93CF93DF93282F30E0F901B2
:10039000E255FF4F8491F901E656FF4FD491F901E0
:1003A000EA57FF4FC491CC23A9F0162F81110E9468
:1003B0009901EC2FF0E0EE0FFF1FEE58FF4FA591D3
:1003C000B4918FB7F894EC91111108C0D095DE2349
:1003D000DC938FBFDF91CF911F910895DE2BF8CF73
:1003E000CF93DF9390E0FC01E656FF4F24918A57AC
:1003F0009F4FFC0184918823D1F090E0880F991FD2
:10040000FC01E859FF4FA591B491FC01EE58FF4F54
:10041000C591D49161110EC09FB7F8948C91E22FD1
:10042000E0958E238C932881E223E8839FBFDF91A0
:10043000CF9108958FB7F894EC91E22BEC938FBF96
:10044000F6CF3FB7F8948091750190917601A09115
:100450007701B091780126B5A89B05C02F3F19F010
:100460000196A11DB11D3FBFBA2FA92F982F882734
:10047000BC01CD01620F711D811D911D42E0660F0F
:10048000771F881F991F4A95D1F708958F929F92E1
:10049000AF92BF92CF92DF92EF92FF920E94210221
:1004A0004B015C0188EEC82E83E0D82EE12CF12CA4
:1004B0000E942102681979098A099B09683E7340E4
:1004C00081059105A8F321E0C21AD108E108F108DD
:1004D00088EE880E83E0981EA11CB11CC114D104C3
:1004E000E104F10429F7FF90EF90DF90CF90BF90E7
:1004F000AF909F908F900895089590E080E00895C8
:10050000FC0101900020E9F73197AF01481B590B1E
:10051000BC0186E192E00C948C00CF93DF93EC0158
:1005200060E08E810E94C20161E08E810E94C20162
:1005300060E08E810E94C2018BE891E00197F1F7A3
:10054000DF91CF910895CF92DF92EF92FF920F93B8
:100550001F93CF93DF936C017C0187E0E80EF11CC1
:10056000D0E0C0E0062F10E0B8010C2E02C0759557
:1005700067950A94E2F76170F70181917F010E940B
:10058000C2012196C430D10579F7C601DF91CF9120
:100590001F910F91FF90EF90DF90CF900C948D0200
:1005A000CF92DF92EF92FF920F931F93CF93DF933F
:1005B000EC01F62E642F8C810E94C2018D818F3F49
:1005C00019F060E00E94C2010F2D10E08F8584FFBA
:1005D00025C06E0187E0C80ED11CF12CE12CB801BA
:1005E0000E2C02C0759567950A94E2F76170F601CA
:1005F00081916F010E94C201FFEFEF1AFF0A88E0AC
:10060000E816F10461F7CE01DF91CF911F910F91B0
:10061000FF90EF90DF90CF900C948D02B80184E0B2
:10062000759567958A95E1F7CE010E94A3026F2D1B
:10063000CE01DF91CF911F910F91FF90EF90DF904E
:10064000CF900C94A30240E0682F86E192E00C94D6
:10065000D002CF93DF93823029F4909125029860E5
:10066000909325028093290210922A0280E48093BD
:100670002B0280E180932C0280E580932D0261E0C3
:1006800080911A020E94F00180911B028F3F19F0A5
:1006900061E00E94F00161E080911C020E94F00183
:1006A000C6E1D2E09E01265132408091250284FDB0
:1006B0000BC084E090E021962817390744F461E0EC
:1006C0008E810E94F001EECF88E090E0F4CF8BE3C2
:1006D0009DE00197F1F760E080911A020E94C2014B
:1006E00060E080911C020E94C20180911B028F3F3A
:1006F00019F060E00E94C2018091250284FD39C09A
:1007000063E086E192E00E94A302CBE4D6E4CE014E
:100710000197F1F763E086E192E00E94A30221973E
:10072000F1F763E086E192E00E94A30283E592E0A4
:100730000197F1F762E086E192E00E94A3028091C6
:10074000250280620E94230384E0809326028CE0CD
:100750000E94230381E00E9423038BE39FE1019722
:10076000F1F782E08093270286E0DF91CF910C942D
:10077000230380620E9423038BE496E40197F1F740
:100780008091250280620E94230383E592E0019715
:10079000F1F78091250280620E942303D0CF9091CF
:1007A0002902891710F08FEF890FE82FF0E0EA5E39
:1007B000FD4F848980680C94230341E00E94D0029D
:1007C00081E090E008951F920F920FB60F921124CE
:1007D0002F933F934F935F936F937F938F939F9349
:1007E000AF93BF93EF93FF9389E791E00E940A01D3
:1007F000FF91EF91BF91AF919F918F917F916F91F9
:100800005F914F913F912F910F900FBE0F901F90CE
:1008100018951F920F920FB60F9211242F938F935A
:100820009F93EF93FF93E0918901F0918A0180817A
:10083000E0918F01F091900182FD1BC09081809129
:1008400092018F5F8F7320919301821741F0E091A5
:100850009201F0E0E758FE4F958F80939201FF914F
:10086000EF919F918F912F910F900FBE0F901F903E
:1008700018958081F4CF1F920F920FB60F9211241A
:100880002F933F938F939F93AF93BF938091710169
:1008900090917201A0917301B09174013091700137
:1008A00023E0230F2D3758F50196A11DB11D20938C
:1008B00070018093710190937201A0937301B093C2
:1008C00074018091750190917601A0917701B091AA
:1008D00078010196A11DB11D809375019093760159
:1008E000A0937701B0937801BF91AF919F918F91C1
:1008F0003F912F910F900FBE0F901F90189526E8F3
:10090000230F0296A11DB11DD2CFE9E7F1E01382BA
:10091000128288EE93E0A0E0B0E084839583A68302
:10092000B78384E091E09183808385EC90E09587A4
:10093000848784EC90E09787868780EC90E0918BA9
:10094000808B81EC90E0938B828B82EC90E0958B96
:10095000848B86EC90E0978B868B118E128E138E93
:10096000148EE6E1F2E01382128286E191E0918337
:1009700080838DE084838FEF85838CE086838BE09A
:1009800087838AE0808789E0818788E08287138671
:10099000148615861686178681E00C9429037894B0
:1009A00084B5826084BD84B5816084BD85B5826074
:1009B00085BD85B5816085BD80916E008160809325
:1009C0006E0010928100809181008260809381008E
:1009D000809181008160809381008091800081609E
:1009E000809380008091B10084608093B1008091F9
:1009F000B00081608093B00080917A008460809321
:100A00007A0080917A00826080937A0080917A00E7
:100A1000816080937A0080917A00806880937A0068
:100A20001092C100E0918901F0918A0182E08083F7
:100A3000E0918501F09186011082E0918701F091AB
:100A400088018FEC808310929101E0918D01F091EB
:100A50008E0186E08083E0918B01F0918C01808192
:100A600080618083E0918B01F0918C0180818860AE
:100A70008083E0918B01F0918C018081806880837C
:100A8000E0918B01F0918C0180818F7D808382E0E9
:100A90000E94290360E08EE00E94F00161E087E09F
:100AA0000E94F00160E087E00E94C20180E00E94A5
:100AB000CF038EE191E00E94800281E00E94CF038B
:100AC00089E291E00E9480020E94460281E00E9439
:100AD00023038BE39FE10197F1F7CCEBD0E008EA29
:100AE00010E094E9E92E90E0F92E20E0C22E20E0FB
:100AF000D22EFE018491F801A490F701B490BB209E
:100B000069F181110E949901EB2DF0E0EE0FFF1FBA
:100B1000E458FF4FA591B4918C91A822F9F080E0A0
:100B20000E94CF0381E391E00E94800281E00E9455
:100B3000CF0387E491E00E94800260E087E00E949A
:100B4000C2010E944602C114D10499F20E94F6002B
:100B5000882309F4CECF0E940000CBCF80E00E9412
:100B6000CF0381E591E00E94800281E00E94CF03E3
:100B700085E691E00E94800261E0E0CFEE0FFF1F6A
:0C0B80000590F491E02D0994F894FFCF4B
:100B8C00000000002C018C00B9007901EA00C800BB
:100B9C00DC0000000000DD038C007D027C02534D64
:100BAC00415254205241494E0053454E53494E47F1
:100BBC00005241494E204E4F542044455445435415
:100BCC00454420202020004D4F544F52204F464684
:100BDC00005241494E2044455445435445442E2E21
:100BEC002E202020004D4F544F52204F4E200000FD
:00000001FF
